{
  "contractName": "Splitter",
  "abi": [
    {
      "constant": true,
      "inputs": [
        {
          "name": "",
          "type": "address"
        }
      ],
      "name": "balances",
      "outputs": [
        {
          "name": "",
          "type": "uint256"
        }
      ],
      "payable": false,
      "stateMutability": "view",
      "type": "function"
    },
    {
      "constant": true,
      "inputs": [],
      "name": "owner",
      "outputs": [
        {
          "name": "",
          "type": "address"
        }
      ],
      "payable": false,
      "stateMutability": "view",
      "type": "function"
    },
    {
      "inputs": [],
      "payable": true,
      "stateMutability": "payable",
      "type": "constructor"
    },
    {
      "payable": false,
      "stateMutability": "nonpayable",
      "type": "fallback"
    },
    {
      "anonymous": false,
      "inputs": [
        {
          "indexed": true,
          "name": "from",
          "type": "address"
        },
        {
          "indexed": false,
          "name": "value",
          "type": "uint256"
        }
      ],
      "name": "LogPayment",
      "type": "event"
    },
    {
      "anonymous": false,
      "inputs": [
        {
          "indexed": true,
          "name": "to",
          "type": "address"
        },
        {
          "indexed": false,
          "name": "value",
          "type": "uint256"
        }
      ],
      "name": "LogWithdrawal",
      "type": "event"
    },
    {
      "anonymous": false,
      "inputs": [
        {
          "indexed": true,
          "name": "by",
          "type": "address"
        }
      ],
      "name": "LogKill",
      "type": "event"
    },
    {
      "constant": false,
      "inputs": [
        {
          "name": "recipient1",
          "type": "address"
        },
        {
          "name": "recipient2",
          "type": "address"
        }
      ],
      "name": "splitPayment",
      "outputs": [
        {
          "name": "success",
          "type": "bool"
        }
      ],
      "payable": true,
      "stateMutability": "payable",
      "type": "function"
    },
    {
      "constant": false,
      "inputs": [],
      "name": "withdrawFunds",
      "outputs": [
        {
          "name": "success",
          "type": "bool"
        }
      ],
      "payable": false,
      "stateMutability": "nonpayable",
      "type": "function"
    },
    {
      "constant": false,
      "inputs": [],
      "name": "kill",
      "outputs": [],
      "payable": false,
      "stateMutability": "nonpayable",
      "type": "function"
    }
  ],
  "bytecode": "0x6060604052336000806101000a81548173ffffffffffffffffffffffffffffffffffffffff021916908373ffffffffffffffffffffffffffffffffffffffff1602179055506105d0806100536000396000f30060606040526004361061006d576000357c0100000000000000000000000000000000000000000000000000000000900463ffffffff16806324600fc31461007d57806327e235e3146100aa5780632e450e2b146100f757806341c0e1b51461015c5780638da5cb5b14610171575b341561007857600080fd5b600080fd5b341561008857600080fd5b6100906101c6565b604051808215151515815260200191505060405180910390f35b34156100b557600080fd5b6100e1600480803573ffffffffffffffffffffffffffffffffffffffff169060200190919050506102f5565b6040518082815260200191505060405180910390f35b610142600480803573ffffffffffffffffffffffffffffffffffffffff1690602001909190803573ffffffffffffffffffffffffffffffffffffffff1690602001909190505061030d565b604051808215151515815260200191505060405180910390f35b341561016757600080fd5b61016f6104a7565b005b341561017c57600080fd5b61018461057f565b604051808273ffffffffffffffffffffffffffffffffffffffff1673ffffffffffffffffffffffffffffffffffffffff16815260200191505060405180910390f35b600080600160003373ffffffffffffffffffffffffffffffffffffffff1673ffffffffffffffffffffffffffffffffffffffff16815260200190815260200160002054905060008111151561021a57600080fd5b6000600160003373ffffffffffffffffffffffffffffffffffffffff1673ffffffffffffffffffffffffffffffffffffffff168152602001908152602001600020819055503373ffffffffffffffffffffffffffffffffffffffff167fb4214c8c54fc7442f36d3682f59aebaf09358a4431835b30efb29d52cf9e1e91826040518082815260200191505060405180910390a23373ffffffffffffffffffffffffffffffffffffffff166108fc829081150290604051600060405180830381858888f1935050505015156102ed57600080fd5b600191505090565b60016020528060005260406000206000915090505481565b60008073ffffffffffffffffffffffffffffffffffffffff168373ffffffffffffffffffffffffffffffffffffffff161415151561034a57600080fd5b600073ffffffffffffffffffffffffffffffffffffffff168273ffffffffffffffffffffffffffffffffffffffff161415151561038657600080fd5b8173ffffffffffffffffffffffffffffffffffffffff168373ffffffffffffffffffffffffffffffffffffffff16141515156103c157600080fd5b6000341115156103d057600080fd5b60006002348115156103de57fe5b061415156103eb57600080fd5b6002348115156103f757fe5b04600160008573ffffffffffffffffffffffffffffffffffffffff1673ffffffffffffffffffffffffffffffffffffffff1681526020019081526020016000206000828254019250508190555060023481151561045057fe5b04600160008473ffffffffffffffffffffffffffffffffffffffff1673ffffffffffffffffffffffffffffffffffffffff168152602001908152602001600020600082825401925050819055506001905092915050565b6000809054906101000a900473ffffffffffffffffffffffffffffffffffffffff1673ffffffffffffffffffffffffffffffffffffffff163373ffffffffffffffffffffffffffffffffffffffff1614151561050257600080fd5b3373ffffffffffffffffffffffffffffffffffffffff167f7cd531232cf2a935531a2059a1021ee56cecce23e6f421cfa5cb1043fe101ab860405160405180910390a26000809054906101000a900473ffffffffffffffffffffffffffffffffffffffff1673ffffffffffffffffffffffffffffffffffffffff16ff5b6000809054906101000a900473ffffffffffffffffffffffffffffffffffffffff16815600a165627a7a7230582049b722bf8380bc7df20ea2735ed5d295c57ccfc8f735eb503c47f1c960d692560029",
  "source": "pragma solidity ^0.4.19;\n\ncontract Splitter {\n    address public owner;\n    mapping (address => uint) public balances;\n\n    event LogPayment(address indexed from, uint value);\n    event LogWithdrawal(address indexed to, uint value);\n    event LogKill(address indexed by);\n\n    // Constructor\n    function Splitter()\n    payable\n    public {\n        owner = msg.sender;\n    }\n\n    // Fallback function\n    function()\n    public {\n        revert();\n    }\n\n    // Updates balances for recipients when a payment is sent to this function\n    function splitPayment(address recipient1, address recipient2)\n    public\n    payable\n    returns (bool success){\n        require(recipient1 != address(0x0));\n        require(recipient2 != address(0x0));\n        require(recipient1 != recipient2);\n\n        require(msg.value > 0);\n        require(msg.value % 2 == 0);\n\n        balances[recipient1] += msg.value / 2;\n        balances[recipient2] += msg.value / 2;\n\n        // Not sending payment here\n        // Using the Withdrawal pattern:\n        // http://solidity.readthedocs.io/en/v0.4.21/common-patterns.html\n\n        //emit LogPayment(msg.sender, msg.value);\n\n        return true;\n    }\n\n    // Recipients can use this function to withdraw their part of the payments\n    function withdrawFunds()\n    public\n    returns (bool success){\n        uint amount = balances[msg.sender];\n        require(amount > 0);\n\n        // Remember to zero the pending refund before\n        // sending to prevent re-entrancy attacks\n        balances[msg.sender] = 0;\n        emit LogWithdrawal(msg.sender, amount);\n\n        msg.sender.transfer(amount);\n\n        return true;\n    }\n\n    function kill()\n    public {\n        require(msg.sender == owner);\n\n        emit LogKill(msg.sender);\n\n        selfdestruct(owner);\n    }\n}\n",
  "sourcePath": "/Users/WWWillems/Dev/DAPPS/01-splitter-contract/contracts/Splitter.sol",
  "compiler": {
    "name": "solc",
    "version": "0.4.21+commit.dfe3193c.Emscripten.clang"
  },
  "schemaVersion": "2.0.0",
  "updatedAt": "2018-04-19T09:55:35.269Z"
}