{
  "contractName": "Splitter",
  "abi": [
    {
      "constant": true,
      "inputs": [
        {
          "name": "",
          "type": "address"
        }
      ],
      "name": "balances",
      "outputs": [
        {
          "name": "",
          "type": "uint256"
        }
      ],
      "payable": false,
      "stateMutability": "view",
      "type": "function"
    },
    {
      "constant": true,
      "inputs": [],
      "name": "owner",
      "outputs": [
        {
          "name": "",
          "type": "address"
        }
      ],
      "payable": false,
      "stateMutability": "view",
      "type": "function"
    },
    {
      "inputs": [],
      "payable": true,
      "stateMutability": "payable",
      "type": "constructor"
    },
    {
      "payable": false,
      "stateMutability": "nonpayable",
      "type": "fallback"
    },
    {
      "anonymous": false,
      "inputs": [
        {
          "indexed": true,
          "name": "from",
          "type": "address"
        },
        {
          "indexed": false,
          "name": "value",
          "type": "uint256"
        }
      ],
      "name": "LogPayment",
      "type": "event"
    },
    {
      "anonymous": false,
      "inputs": [
        {
          "indexed": true,
          "name": "to",
          "type": "address"
        },
        {
          "indexed": false,
          "name": "value",
          "type": "uint256"
        }
      ],
      "name": "LogWithdrawal",
      "type": "event"
    },
    {
      "constant": false,
      "inputs": [
        {
          "name": "recipient1",
          "type": "address"
        },
        {
          "name": "recipient2",
          "type": "address"
        }
      ],
      "name": "splitPayment",
      "outputs": [
        {
          "name": "success",
          "type": "bool"
        }
      ],
      "payable": true,
      "stateMutability": "payable",
      "type": "function"
    },
    {
      "constant": false,
      "inputs": [],
      "name": "withdrawFunds",
      "outputs": [
        {
          "name": "success",
          "type": "bool"
        }
      ],
      "payable": false,
      "stateMutability": "nonpayable",
      "type": "function"
    }
  ],
  "bytecode": "0x6060604052336000806101000a81548173ffffffffffffffffffffffffffffffffffffffff021916908373ffffffffffffffffffffffffffffffffffffffff160217905550610526806100536000396000f300606060405260043610610062576000357c0100000000000000000000000000000000000000000000000000000000900463ffffffff16806324600fc31461007257806327e235e31461009f5780632e450e2b146100ec5780638da5cb5b14610151575b341561006d57600080fd5b600080fd5b341561007d57600080fd5b6100856101a6565b604051808215151515815260200191505060405180910390f35b34156100aa57600080fd5b6100d6600480803573ffffffffffffffffffffffffffffffffffffffff169060200190919050506102d5565b6040518082815260200191505060405180910390f35b610137600480803573ffffffffffffffffffffffffffffffffffffffff1690602001909190803573ffffffffffffffffffffffffffffffffffffffff169060200190919050506102ed565b604051808215151515815260200191505060405180910390f35b341561015c57600080fd5b6101646104d5565b604051808273ffffffffffffffffffffffffffffffffffffffff1673ffffffffffffffffffffffffffffffffffffffff16815260200191505060405180910390f35b600080600160003373ffffffffffffffffffffffffffffffffffffffff1673ffffffffffffffffffffffffffffffffffffffff1681526020019081526020016000205490506000811115156101fa57600080fd5b6000600160003373ffffffffffffffffffffffffffffffffffffffff1673ffffffffffffffffffffffffffffffffffffffff168152602001908152602001600020819055503373ffffffffffffffffffffffffffffffffffffffff167fb4214c8c54fc7442f36d3682f59aebaf09358a4431835b30efb29d52cf9e1e91826040518082815260200191505060405180910390a23373ffffffffffffffffffffffffffffffffffffffff166108fc829081150290604051600060405180830381858888f1935050505015156102cd57600080fd5b600191505090565b60016020528060005260406000206000915090505481565b60008073ffffffffffffffffffffffffffffffffffffffff168373ffffffffffffffffffffffffffffffffffffffff161415151561032a57600080fd5b600073ffffffffffffffffffffffffffffffffffffffff168273ffffffffffffffffffffffffffffffffffffffff161415151561036657600080fd5b8173ffffffffffffffffffffffffffffffffffffffff168373ffffffffffffffffffffffffffffffffffffffff16141515156103a157600080fd5b6000341115156103b057600080fd5b60006002348115156103be57fe5b061415156103cb57600080fd5b6002348115156103d757fe5b04600160008573ffffffffffffffffffffffffffffffffffffffff1673ffffffffffffffffffffffffffffffffffffffff1681526020019081526020016000206000828254019250508190555060023481151561043057fe5b04600160008473ffffffffffffffffffffffffffffffffffffffff1673ffffffffffffffffffffffffffffffffffffffff168152602001908152602001600020600082825401925050819055503373ffffffffffffffffffffffffffffffffffffffff167f27a391d95d67e3626574fb5fbe3532bb7366e9254957b1f0e840953c248b2aa8346040518082815260200191505060405180910390a26001905092915050565b6000809054906101000a900473ffffffffffffffffffffffffffffffffffffffff16815600a165627a7a72305820a32061e34ea9ef88aab2728b41f509391159ed402307dc7c07555719da2142d00029",
  "source": "pragma solidity ^0.4.19;\n\ncontract Splitter {\n    address public owner;\n    mapping (address => uint) public balances;\n\n    event LogPayment(address indexed from, uint value);\n    event LogWithdrawal(address indexed to, uint value);\n\n    // Constructor\n    function Splitter()\n    payable\n    public {\n        owner = msg.sender;\n    }\n\n    // Fallback function\n    function()\n    public {\n        revert();\n    }\n\n    // Updates balances for recipients when a payment is sent to this function\n    function splitPayment(address recipient1, address recipient2)\n    public\n    payable\n    returns (bool success){\n        require(recipient1 != address(0x0));\n        require(recipient2 != address(0x0));\n        require(recipient1 != recipient2);\n\n        require(msg.value > 0);\n        require(msg.value % 2 == 0);\n\n        balances[recipient1] += msg.value / 2;\n        balances[recipient2] += msg.value / 2;\n\n        // Not sending payment here\n        // Using the Withdrawal pattern:\n        // http://solidity.readthedocs.io/en/v0.4.21/common-patterns.html\n\n        emit LogPayment(msg.sender, msg.value);\n\n        return true;\n    }\n\n    // Recipients can use this function to withdraw their part of the payments\n    function withdrawFunds()\n    public\n    returns (bool success){\n        uint amount = balances[msg.sender];\n        require(amount > 0);\n\n        // Remember to zero the pending refund before\n        // sending to prevent re-entrancy attacks\n        balances[msg.sender] = 0;\n        emit LogWithdrawal(msg.sender, amount);\n\n        msg.sender.transfer(amount);\n\n        return true;\n    }\n}\n",
  "sourcePath": "/Users/WWWillems/Dev/DAPPS/01-splitter-contract/contracts/Splitter.sol",
  "compiler": {
    "name": "solc",
    "version": "0.4.21+commit.dfe3193c.Emscripten.clang"
  },
  "schemaVersion": "2.0.0",
  "updatedAt": "2018-04-13T15:48:27.411Z"
}